{
  "contractName": "Voting",
  "abi": [
    {
      "inputs": [
        {
          "internalType": "string[]",
          "name": "candidateNames",
          "type": "string[]"
        }
      ],
      "stateMutability": "nonpayable",
      "type": "constructor"
    },
    {
      "inputs": [],
      "name": "admin",
      "outputs": [
        {
          "internalType": "address",
          "name": "",
          "type": "address"
        }
      ],
      "stateMutability": "view",
      "type": "function"
    },
    {
      "inputs": [
        {
          "internalType": "uint256",
          "name": "",
          "type": "uint256"
        }
      ],
      "name": "candidates",
      "outputs": [
        {
          "internalType": "string",
          "name": "",
          "type": "string"
        }
      ],
      "stateMutability": "view",
      "type": "function"
    },
    {
      "inputs": [
        {
          "internalType": "address",
          "name": "",
          "type": "address"
        }
      ],
      "name": "hasVoted",
      "outputs": [
        {
          "internalType": "bool",
          "name": "",
          "type": "bool"
        }
      ],
      "stateMutability": "view",
      "type": "function"
    },
    {
      "inputs": [
        {
          "internalType": "string",
          "name": "",
          "type": "string"
        }
      ],
      "name": "votes",
      "outputs": [
        {
          "internalType": "uint256",
          "name": "",
          "type": "uint256"
        }
      ],
      "stateMutability": "view",
      "type": "function"
    },
    {
      "inputs": [
        {
          "internalType": "string",
          "name": "candidate",
          "type": "string"
        }
      ],
      "name": "vote",
      "outputs": [],
      "stateMutability": "nonpayable",
      "type": "function"
    },
    {
      "inputs": [
        {
          "internalType": "string",
          "name": "candidate",
          "type": "string"
        }
      ],
      "name": "getVotes",
      "outputs": [
        {
          "internalType": "uint256",
          "name": "",
          "type": "uint256"
        }
      ],
      "stateMutability": "view",
      "type": "function"
    },
    {
      "inputs": [],
      "name": "getAllCandidates",
      "outputs": [
        {
          "internalType": "string[]",
          "name": "",
          "type": "string[]"
        }
      ],
      "stateMutability": "view",
      "type": "function"
    }
  ],
  "bytecode": "0x60806040523480156200001157600080fd5b506040516200121d3803806200121d833981810160405281019062000037919062000320565b336000806101000a81548173ffffffffffffffffffffffffffffffffffffffff021916908373ffffffffffffffffffffffffffffffffffffffff16021790555080600290805190602001906200008f92919062000097565b5050620004c5565b828054828255906000526020600020908101928215620000eb579160200282015b82811115620000ea578251829080519060200190620000d9929190620000fe565b5091602001919060010190620000b8565b5b509050620000fa91906200018f565b5090565b8280546200010c9062000431565b90600052602060002090601f0160209004810192826200013057600085556200017c565b82601f106200014b57805160ff19168380011785556200017c565b828001600101855582156200017c579182015b828111156200017b5782518255916020019190600101906200015e565b5b5090506200018b9190620001b7565b5090565b5b80821115620001b35760008181620001a99190620001d6565b5060010162000190565b5090565b5b80821115620001d2576000816000905550600101620001b8565b5090565b508054620001e49062000431565b6000825580601f10620001f8575062000219565b601f016020900490600052602060002090810190620002189190620001b7565b5b50565b6000620002336200022d8462000399565b62000365565b9050808382526020820190508260005b858110156200027757815185016200025c8882620002f3565b84526020840193506020830192505060018101905062000243565b5050509392505050565b6000620002986200029284620003c8565b62000365565b905082815260208101848484011115620002b157600080fd5b620002be848285620003fb565b509392505050565b600082601f830112620002d857600080fd5b8151620002ea8482602086016200021c565b91505092915050565b600082601f8301126200030557600080fd5b81516200031784826020860162000281565b91505092915050565b6000602082840312156200033357600080fd5b600082015167ffffffffffffffff8111156200034e57600080fd5b6200035c84828501620002c6565b91505092915050565b6000604051905081810181811067ffffffffffffffff821117156200038f576200038e62000496565b5b8060405250919050565b600067ffffffffffffffff821115620003b757620003b662000496565b5b602082029050602081019050919050565b600067ffffffffffffffff821115620003e657620003e562000496565b5b601f19601f8301169050602081019050919050565b60005b838110156200041b578082015181840152602081019050620003fe565b838111156200042b576000848401525b50505050565b600060028204905060018216806200044a57607f821691505b6020821081141562000461576200046062000467565b5b50919050565b7f4e487b7100000000000000000000000000000000000000000000000000000000600052602260045260246000fd5b7f4e487b7100000000000000000000000000000000000000000000000000000000600052604160045260246000fd5b610d4880620004d56000396000f3fe608060405234801561001057600080fd5b506004361061007d5760003560e01c8063805265e51161005b578063805265e514610100578063b99ef1fa14610130578063f851a44014610160578063fc36e15b1461017e5761007d565b806309eef43e146100825780632e6997fe146100b25780633477ee2e146100d0575b600080fd5b61009c6004803603810190610097919061066c565b61019a565b6040516100a991906109c2565b60405180910390f35b6100ba6101ba565b6040516100c791906109a0565b60405180910390f35b6100ea60048036038101906100e591906106d6565b610293565b6040516100f791906109dd565b60405180910390f35b61011a60048036038101906101159190610695565b61033f565b6040516101279190610a3f565b60405180910390f35b61014a60048036038101906101459190610695565b610367565b6040516101579190610a3f565b60405180910390f35b610168610395565b6040516101759190610985565b60405180910390f35b61019860048036038101906101939190610695565b6103b9565b005b60016020528060005260406000206000915054906101000a900460ff1681565b60606002805480602002602001604051908101604052809291908181526020016000905b8282101561028a5783829060005260206000200180546101fd90610bcb565b80601f016020809104026020016040519081016040528092919081815260200182805461022990610bcb565b80156102765780601f1061024b57610100808354040283529160200191610276565b820191906000526020600020905b81548152906001019060200180831161025957829003601f168201915b5050505050815260200190600101906101de565b50505050905090565b600281815481106102a357600080fd5b9060005260206000200160009150905080546102be90610bcb565b80601f01602080910402602001604051908101604052809291908181526020018280546102ea90610bcb565b80156103375780601f1061030c57610100808354040283529160200191610337565b820191906000526020600020905b81548152906001019060200180831161031a57829003601f168201915b505050505081565b60006003826040516103519190610957565b9081526020016040518091039020549050919050565b6003818051602081018201805184825260208301602085012081835280955050505050506000915090505481565b60008054906101000a900473ffffffffffffffffffffffffffffffffffffffff1681565b600160003373ffffffffffffffffffffffffffffffffffffffff1673ffffffffffffffffffffffffffffffffffffffff16815260200190815260200160002060009054906101000a900460ff1615610446576040517f08c379a000000000000000000000000000000000000000000000000000000000815260040161043d906109ff565b60405180910390fd5b6000805b60028054905081101561050a57826040516020016104689190610957565b60405160208183030381529060405280519060200120600282815481106104b8577f4e487b7100000000000000000000000000000000000000000000000000000000600052603260045260246000fd5b906000526020600020016040516020016104d2919061096e565b6040516020818303038152906040528051906020012014156104f7576001915061050a565b808061050290610bfd565b91505061044a565b508061054b576040517f08c379a000000000000000000000000000000000000000000000000000000000815260040161054290610a1f565b60405180910390fd5b60018060003373ffffffffffffffffffffffffffffffffffffffff1673ffffffffffffffffffffffffffffffffffffffff16815260200190815260200160002060006101000a81548160ff0219169083151502179055506003826040516105b29190610957565b908152602001604051809103902060008154809291906105d190610bfd565b91905055505050565b60006105ed6105e884610a8b565b610a5a565b90508281526020810184848401111561060557600080fd5b610610848285610b89565b509392505050565b60008135905061062781610ce4565b92915050565b600082601f83011261063e57600080fd5b813561064e8482602086016105da565b91505092915050565b60008135905061066681610cfb565b92915050565b60006020828403121561067e57600080fd5b600061068c84828501610618565b91505092915050565b6000602082840312156106a757600080fd5b600082013567ffffffffffffffff8111156106c157600080fd5b6106cd8482850161062d565b91505092915050565b6000602082840312156106e857600080fd5b60006106f684828501610657565b91505092915050565b600061070b83836107a6565b905092915050565b61071c81610b41565b82525050565b600061072d82610ae0565b6107378185610b03565b93508360208202850161074985610abb565b8060005b85811015610785578484038952815161076685826106ff565b945061077183610af6565b925060208a0199505060018101905061074d565b50829750879550505050505092915050565b6107a081610b53565b82525050565b60006107b182610aeb565b6107bb8185610b14565b93506107cb818560208601610b98565b6107d481610cd3565b840191505092915050565b60006107ea82610aeb565b6107f48185610b25565b9350610804818560208601610b98565b61080d81610cd3565b840191505092915050565b600061082382610aeb565b61082d8185610b36565b935061083d818560208601610b98565b80840191505092915050565b6000815461085681610bcb565b6108608186610b36565b9450600182166000811461087b576001811461088c576108bf565b60ff198316865281860193506108bf565b61089585610acb565b60005b838110156108b757815481890152600182019150602081019050610898565b838801955050505b50505092915050565b60006108d5601783610b25565b91507f596f75206861766520616c726561647920766f7465642e0000000000000000006000830152602082019050919050565b6000610915601283610b25565b91507f496e76616c69642063616e6469646174652e00000000000000000000000000006000830152602082019050919050565b61095181610b7f565b82525050565b60006109638284610818565b915081905092915050565b600061097a8284610849565b915081905092915050565b600060208201905061099a6000830184610713565b92915050565b600060208201905081810360008301526109ba8184610722565b905092915050565b60006020820190506109d76000830184610797565b92915050565b600060208201905081810360008301526109f781846107df565b905092915050565b60006020820190508181036000830152610a18816108c8565b9050919050565b60006020820190508181036000830152610a3881610908565b9050919050565b6000602082019050610a546000830184610948565b92915050565b6000604051905081810181811067ffffffffffffffff82111715610a8157610a80610ca4565b5b8060405250919050565b600067ffffffffffffffff821115610aa657610aa5610ca4565b5b601f19601f8301169050602081019050919050565b6000819050602082019050919050565b60008190508160005260206000209050919050565b600081519050919050565b600081519050919050565b6000602082019050919050565b600082825260208201905092915050565b600082825260208201905092915050565b600082825260208201905092915050565b600081905092915050565b6000610b4c82610b5f565b9050919050565b60008115159050919050565b600073ffffffffffffffffffffffffffffffffffffffff82169050919050565b6000819050919050565b82818337600083830152505050565b60005b83811015610bb6578082015181840152602081019050610b9b565b83811115610bc5576000848401525b50505050565b60006002820490506001821680610be357607f821691505b60208210811415610bf757610bf6610c75565b5b50919050565b6000610c0882610b7f565b91507fffffffffffffffffffffffffffffffffffffffffffffffffffffffffffffffff821415610c3b57610c3a610c46565b5b600182019050919050565b7f4e487b7100000000000000000000000000000000000000000000000000000000600052601160045260246000fd5b7f4e487b7100000000000000000000000000000000000000000000000000000000600052602260045260246000fd5b7f4e487b7100000000000000000000000000000000000000000000000000000000600052604160045260246000fd5b6000601f19601f8301169050919050565b610ced81610b41565b8114610cf857600080fd5b50565b610d0481610b7f565b8114610d0f57600080fd5b5056fea26469706673582212204517035acbefd038e868d76568fd98c67c1ed754039ebd08c737cf10a508b54964736f6c63430008000033",
  "immutableReferences": {},
  "source": "// SPDX-License-Identifier: MIT\r\npragma solidity ^0.8.0;\r\n\r\ncontract Voting {\r\n    address public admin;\r\n    mapping(address => bool) public hasVoted;\r\n    string[] public candidates;\r\n    mapping(string => uint256) public votes;\r\n\r\n    constructor(string[] memory candidateNames) {\r\n        admin = msg.sender;\r\n        candidates = candidateNames;\r\n    }\r\n\r\n    function vote(string memory candidate) public {\r\n        require(!hasVoted[msg.sender], \"You have already voted.\");\r\n        bool valid = false;\r\n\r\n        for (uint i = 0; i < candidates.length; i++) {\r\n            if (keccak256(abi.encodePacked(candidates[i])) == keccak256(abi.encodePacked(candidate))) {\r\n                valid = true;\r\n                break;\r\n            }\r\n        }\r\n\r\n        require(valid, \"Invalid candidate.\");\r\n        hasVoted[msg.sender] = true;\r\n        votes[candidate]++;\r\n    }\r\n\r\n    function getVotes(string memory candidate) public view returns (uint256) {\r\n        return votes[candidate];\r\n    }\r\n\r\n    function getAllCandidates() public view returns (string[] memory) {\r\n        return candidates;\r\n    }\r\n}\r\n",
  "sourcePath": "N:\\Neeraj570\\smart-contract\\contracts\\Voting.sol",
  "compiler": {
    "name": "solc",
    "version": "0.8.0+commit.c7dfd78e.Emscripten.clang"
  },
  "schemaVersion": "3.4.16",
  "updatedAt": "2025-08-04T11:30:28.563Z",
  "devdoc": {
    "kind": "dev",
    "methods": {},
    "version": 1
  },
  "userdoc": {
    "kind": "user",
    "methods": {},
    "version": 1
  }
}