{
  "contractName": "Voting",
  "abi": [
    {
      "inputs": [],
      "stateMutability": "nonpayable",
      "type": "constructor"
    },
    {
      "inputs": [],
      "name": "candidateCount",
      "outputs": [
        {
          "internalType": "uint256",
          "name": "",
          "type": "uint256"
        }
      ],
      "stateMutability": "view",
      "type": "function"
    },
    {
      "inputs": [
        {
          "internalType": "uint256",
          "name": "",
          "type": "uint256"
        }
      ],
      "name": "candidates",
      "outputs": [
        {
          "internalType": "string",
          "name": "name",
          "type": "string"
        },
        {
          "internalType": "uint256",
          "name": "voteCount",
          "type": "uint256"
        }
      ],
      "stateMutability": "view",
      "type": "function"
    },
    {
      "inputs": [
        {
          "internalType": "address",
          "name": "",
          "type": "address"
        }
      ],
      "name": "hasVoted",
      "outputs": [
        {
          "internalType": "bool",
          "name": "",
          "type": "bool"
        }
      ],
      "stateMutability": "view",
      "type": "function"
    },
    {
      "inputs": [
        {
          "internalType": "string",
          "name": "_name",
          "type": "string"
        }
      ],
      "name": "addCandidate",
      "outputs": [],
      "stateMutability": "nonpayable",
      "type": "function"
    },
    {
      "inputs": [
        {
          "internalType": "uint256",
          "name": "_candidateId",
          "type": "uint256"
        }
      ],
      "name": "vote",
      "outputs": [],
      "stateMutability": "nonpayable",
      "type": "function"
    }
  ],
  "bytecode": "0x608060405234801562000010575f80fd5b50620000576040518060400160405280600581526020017f416c696365000000000000000000000000000000000000000000000000000000815250620000a360201b60201c565b6200009d6040518060400160405280600381526020017f426f620000000000000000000000000000000000000000000000000000000000815250620000a360201b60201c565b620004ca565b60405180604001604052808281526020015f8152505f8060025481526020019081526020015f205f820151815f019081620000df91906200036d565b506020820151816001015590505060025f81548092919062000101906200047e565b919050555050565b5f81519050919050565b7f4e487b71000000000000000000000000000000000000000000000000000000005f52604160045260245ffd5b7f4e487b71000000000000000000000000000000000000000000000000000000005f52602260045260245ffd5b5f60028204905060018216806200018557607f821691505b6020821081036200019b576200019a62000140565b5b50919050565b5f819050815f5260205f209050919050565b5f6020601f8301049050919050565b5f82821b905092915050565b5f60088302620001ff7fffffffffffffffffffffffffffffffffffffffffffffffffffffffffffffffff82620001c2565b6200020b8683620001c2565b95508019841693508086168417925050509392505050565b5f819050919050565b5f819050919050565b5f620002556200024f620002498462000223565b6200022c565b62000223565b9050919050565b5f819050919050565b620002708362000235565b620002886200027f826200025c565b848454620001ce565b825550505050565b5f90565b6200029e62000290565b620002ab81848462000265565b505050565b5b81811015620002d257620002c65f8262000294565b600181019050620002b1565b5050565b601f8211156200032157620002eb81620001a1565b620002f684620001b3565b8101602085101562000306578190505b6200031e6200031585620001b3565b830182620002b0565b50505b505050565b5f82821c905092915050565b5f620003435f198460080262000326565b1980831691505092915050565b5f6200035d838362000332565b9150826002028217905092915050565b620003788262000109565b67ffffffffffffffff81111562000394576200039362000113565b5b620003a082546200016d565b620003ad828285620002d6565b5f60209050601f831160018114620003e3575f8415620003ce578287015190505b620003da858262000350565b86555062000449565b601f198416620003f386620001a1565b5f5b828110156200041c57848901518255600182019150602085019450602081019050620003f5565b868310156200043c578489015162000438601f89168262000332565b8355505b6001600288020188555050505b505050505050565b7f4e487b71000000000000000000000000000000000000000000000000000000005f52601160045260245ffd5b5f6200048a8262000223565b91507fffffffffffffffffffffffffffffffffffffffffffffffffffffffffffffffff8203620004bf57620004be62000451565b5b600182019050919050565b610b4480620004d85f395ff3fe608060405234801561000f575f80fd5b5060043610610055575f3560e01c80630121b93f1461005957806309eef43e146100755780633477ee2e146100a5578063462e91ec146100d6578063a9a981a3146100f2575b5f80fd5b610073600480360381019061006e91906103cb565b610110565b005b61008f600480360381019061008a9190610450565b61025d565b60405161009c9190610495565b60405180910390f35b6100bf60048036038101906100ba91906103cb565b61027a565b6040516100cd929190610547565b60405180910390f35b6100f060048036038101906100eb91906106a1565b61031f565b005b6100fa610381565b60405161010791906106e8565b60405180910390f35b60015f3373ffffffffffffffffffffffffffffffffffffffff1673ffffffffffffffffffffffffffffffffffffffff1681526020019081526020015f205f9054906101000a900460ff161561019a576040517f08c379a00000000000000000000000000000000000000000000000000000000081526004016101919061074b565b60405180910390fd5b60025481106101de576040517f08c379a00000000000000000000000000000000000000000000000000000000081526004016101d5906107b3565b60405180910390fd5b5f808281526020019081526020015f206001015f815480929190610201906107fe565b91905055506001805f3373ffffffffffffffffffffffffffffffffffffffff1673ffffffffffffffffffffffffffffffffffffffff1681526020019081526020015f205f6101000a81548160ff02191690831515021790555050565b6001602052805f5260405f205f915054906101000a900460ff1681565b5f602052805f5260405f205f91509050805f01805461029890610872565b80601f01602080910402602001604051908101604052809291908181526020018280546102c490610872565b801561030f5780601f106102e65761010080835404028352916020019161030f565b820191905f5260205f20905b8154815290600101906020018083116102f257829003601f168201915b5050505050908060010154905082565b60405180604001604052808281526020015f8152505f8060025481526020019081526020015f205f820151815f0190816103599190610a3f565b506020820151816001015590505060025f815480929190610379906107fe565b919050555050565b60025481565b5f604051905090565b5f80fd5b5f80fd5b5f819050919050565b6103aa81610398565b81146103b4575f80fd5b50565b5f813590506103c5816103a1565b92915050565b5f602082840312156103e0576103df610390565b5b5f6103ed848285016103b7565b91505092915050565b5f73ffffffffffffffffffffffffffffffffffffffff82169050919050565b5f61041f826103f6565b9050919050565b61042f81610415565b8114610439575f80fd5b50565b5f8135905061044a81610426565b92915050565b5f6020828403121561046557610464610390565b5b5f6104728482850161043c565b91505092915050565b5f8115159050919050565b61048f8161047b565b82525050565b5f6020820190506104a85f830184610486565b92915050565b5f81519050919050565b5f82825260208201905092915050565b5f5b838110156104e55780820151818401526020810190506104ca565b5f8484015250505050565b5f601f19601f8301169050919050565b5f61050a826104ae565b61051481856104b8565b93506105248185602086016104c8565b61052d816104f0565b840191505092915050565b61054181610398565b82525050565b5f6040820190508181035f83015261055f8185610500565b905061056e6020830184610538565b9392505050565b5f80fd5b5f80fd5b7f4e487b71000000000000000000000000000000000000000000000000000000005f52604160045260245ffd5b6105b3826104f0565b810181811067ffffffffffffffff821117156105d2576105d161057d565b5b80604052505050565b5f6105e4610387565b90506105f082826105aa565b919050565b5f67ffffffffffffffff82111561060f5761060e61057d565b5b610618826104f0565b9050602081019050919050565b828183375f83830152505050565b5f610645610640846105f5565b6105db565b90508281526020810184848401111561066157610660610579565b5b61066c848285610625565b509392505050565b5f82601f83011261068857610687610575565b5b8135610698848260208601610633565b91505092915050565b5f602082840312156106b6576106b5610390565b5b5f82013567ffffffffffffffff8111156106d3576106d2610394565b5b6106df84828501610674565b91505092915050565b5f6020820190506106fb5f830184610538565b92915050565b7f596f7527766520616c726561647920766f7465642100000000000000000000005f82015250565b5f6107356015836104b8565b915061074082610701565b602082019050919050565b5f6020820190508181035f83015261076281610729565b9050919050565b7f496e76616c69642063616e6469646174650000000000000000000000000000005f82015250565b5f61079d6011836104b8565b91506107a882610769565b602082019050919050565b5f6020820190508181035f8301526107ca81610791565b9050919050565b7f4e487b71000000000000000000000000000000000000000000000000000000005f52601160045260245ffd5b5f61080882610398565b91507fffffffffffffffffffffffffffffffffffffffffffffffffffffffffffffffff820361083a576108396107d1565b5b600182019050919050565b7f4e487b71000000000000000000000000000000000000000000000000000000005f52602260045260245ffd5b5f600282049050600182168061088957607f821691505b60208210810361089c5761089b610845565b5b50919050565b5f819050815f5260205f209050919050565b5f6020601f8301049050919050565b5f82821b905092915050565b5f600883026108fe7fffffffffffffffffffffffffffffffffffffffffffffffffffffffffffffffff826108c3565b61090886836108c3565b95508019841693508086168417925050509392505050565b5f819050919050565b5f61094361093e61093984610398565b610920565b610398565b9050919050565b5f819050919050565b61095c83610929565b6109706109688261094a565b8484546108cf565b825550505050565b5f90565b610984610978565b61098f818484610953565b505050565b5b818110156109b2576109a75f8261097c565b600181019050610995565b5050565b601f8211156109f7576109c8816108a2565b6109d1846108b4565b810160208510156109e0578190505b6109f46109ec856108b4565b830182610994565b50505b505050565b5f82821c905092915050565b5f610a175f19846008026109fc565b1980831691505092915050565b5f610a2f8383610a08565b9150826002028217905092915050565b610a48826104ae565b67ffffffffffffffff811115610a6157610a6061057d565b5b610a6b8254610872565b610a768282856109b6565b5f60209050601f831160018114610aa7575f8415610a95578287015190505b610a9f8582610a24565b865550610b06565b601f198416610ab5866108a2565b5f5b82811015610adc57848901518255600182019150602085019450602081019050610ab7565b86831015610af95784890151610af5601f891682610a08565b8355505b6001600288020188555050505b50505050505056fea2646970667358221220a280a869fc7a31302494d0328f50ff94e06d9cf44d7a2f27c4e0a3c862b1c27c64736f6c63430008150033",
  "immutableReferences": {},
  "source": "// SPDX-License-Identifier: MIT\npragma solidity ^0.8.0;\n\ncontract Voting {\n    struct Candidate {\n        string name;\n        uint voteCount;\n    }\n\n    mapping(uint => Candidate) public candidates;\n    mapping(address => bool) public hasVoted;\n    uint public candidateCount;\n\n    constructor() {\n        addCandidate(\"Alice\");\n        addCandidate(\"Bob\");\n    }\n\n    function addCandidate(string memory _name) public {\n        candidates[candidateCount] = Candidate({ name: _name, voteCount: 0 });\n        candidateCount++;\n    }\n\n    function vote(uint _candidateId) public {\n        require(!hasVoted[msg.sender], \"You've already voted!\");\n        require(_candidateId < candidateCount, \"Invalid candidate\");\n\n        candidates[_candidateId].voteCount++;\n        hasVoted[msg.sender] = true;\n    }\n}\n",
  "sourcePath": "/Users/tusharjolly/Desktop/voting-dapp/contracts/Voting.sol",
  "compiler": {
    "name": "solc",
    "version": "0.8.21+commit.d9974bed.Emscripten.clang"
  },
  "schemaVersion": "3.4.16",
  "updatedAt": "2025-07-24T09:19:03.020Z",
  "devdoc": {
    "kind": "dev",
    "methods": {},
    "version": 1
  },
  "userdoc": {
    "kind": "user",
    "methods": {},
    "version": 1
  }
}